:020000040000FA
:060000000A128A11F42F20
:100B92001634831203131A080800F0007008831237
:100BA200031393000800F0007008831203139900E6
:100BB2008316031398180800D92DF3008316031324
:100BC2008712731DE82D720894008715EC2D7008AA
:100BD2007204940087117308710483120313940042
:100BE200080083120313A101F31F042EF009F10977
:100BF200F209F309F00A0319F10A0319F20A0319B7
:100C0200F30AA101A10AF71F152EF409F509F60945
:100C1200F709F40A0319F50A0319F60A0319F70A80
:100C22000130F8007808A1060030A5000030A400C9
:100C32000030A3000030A200730872047104700433
:100C420003196A2EA001A00AF31B352E0130F80009
:100C52000310F00DF10DF20DF30DF80B292E0130FA
:100C6200F8007808A007252E0130F8000310A20D25
:100C7200A30DA40DA50DF80B372E73087702031DE3
:100C82004C2E72087602031D4C2E71087502031D4C
:100C92004C2E70087402031C5D2E7008F402710859
:100CA200031C710FF5027208031C720FF60273081F
:100CB200031C730FF702221401300310F30CF20C21
:100CC200F10CF00CFF3E031D5E2E0130A002031D4D
:100CD200352E21080319782EA209A309A409A50912
:100CE200A20A0319A30A0319A40A0319A50A2508CB
:100CF200F3002408F2002308F1002208F0000800A3
:100D0200831603138601831203138601F001F10196
:100D1200F20120300A128A11DE250A128A112C30C1
:100D220083120313A6000130A7000A128A112A2790
:100D32000A128A11E62E3408031DB22E37080A124F
:100D42008A11CE250A128A110D30FC00FB30FB00FD
:100D5200FB0BA92EFC0BA92EAE2E83120313B4019A
:100D6200B40A83160313141CE62E8312031313080A
:100D7200FB007B08B6004230FB007B08B700B401E1
:100D8200E62E3408031DD82E37080A128A11CE2502
:100D92000A128A110D30FC00FB30FB00FB0BCF2E38
:100DA200FC0BCF2ED42E83120313B401B40A831684
:100DB2000313141CE62E831203131308FB007B0893
:100DC200B5001630BD2EB601B501831203138C1E79
:100DD200FB2E4130FC00EE30FB00FB0BEE2EFC0B39
:100DE200EE2E00000A128A11CA250A128A118312F3
:100DF2000313860036080A128A11D4250A128A11B0
:100E02002C300A128A11D4250A128A118312031372
:100E120035080A128A11D4250A128A110A300A12D6
:100E22008A11D4250A128A11831203133708FB0090
:100E3200FC017C08003A03191F2FE42E7B08163AA6
:100E420003199C2E543A0319C22EE42E0A128A1157
:100E52000028831203132708A9002608A8000630D9
:100E6200FF000310A80DA90DFF0B322F2808F00078
:100E72002908F100F201F3012708AB002608AA00B5
:100E82000630FF000310AA0DAB0DFF0B432F2A08FB
:100E9200AC002B08AD00AE01AF010030B00009304C
:100EA200B1003D30B2000030B3002C08B0022D0872
:100EB200031C2D0F5D2F5E2FB1022E08031C2E0F77
:100EC200632F642FB2022F08031C2F0F692F6A2F82
:100ED200B3023308F7003208F6003108F500300893
:100EE200F4000A128A11F2250A128A117108FA0014
:100EF2007008F90001307A02003003197902031CEC
:100F0200DA2F831203132708A9002608A800A80EC7
:100F1200A90EF030A90528080F39A904F030A80558
:100F22002808F0002908F100F201F3012708AB00BC
:100F32002608AA00AA0EAB0EF030AB052A080F391C
:100F4200AB04F030AA052A08AC002B08AD00AE01B4
:100F5200AF010030B0000930B1003D30B2000030C6
:100F6200B3002C08B0022D08031C2D0FB92FBA2F85
:100F7200B1022E08031C2E0FBF2FC02FB2022F0862
:100F8200031C2F0FC52FC62FB3023308F7003208F8
:100F9200F6003108F5003008F4000A128A11F22531
:100FA2000A128A117108FA007008F90083160313F5
:100FB200181501307A02003003197902031808006B
:100FC20079088316031399001812831203139817D2
:100FD2008316031387170713831203131816831636
:100FE2000313981608000A128A11C925B700B40122
:0E0FF200B501B601FD0183010A128A11812E9C
:04400E00D4E0FFFFFC
:00000001FF
