:020000040000FA
:060000000A128A11F52F1F
:100EE4001634F00070088312031393000800F30013
:100EF400831603138712731D832F720894008715BA
:100F0400872F700872049400871173087104831288
:100F1400031394000800831603138601F001F10102
:100F2400F20120300A128A1179270A128A11E42F59
:100F34007608031DAE2F79080A128A1173270A1244
:100F44008A110D30F500FB30F400F40BA72FF50BDC
:100F5400A72FAC2FF601F60A83160313141CE02FF7
:100F6400831203131308F4007408F8004230F400E9
:100F74007408F900F601E02F7608031DD22F7908D2
:100F84000A128A1173270A128A110D30F500FB30F8
:100F9400F400F40BCB2FF50BCB2FD02FF601F60A70
:100FA40083160313141CE02F831203131308F40095
:100FB4007408F7001630B92FF801F7017708831287
:100FC400031386007908F400F5017508003A031943
:100FD400EC2FDE2F7408163A03199A2F543A03198A
:100FE400BE2FDE2FE02F0A128A117227F900F601B4
:0C0FF400F701F80183010A128A118D2F09
:04400E00D4E0FFFFFC
:00000001FF
