:020000040000FA
:060000000A128A110C280F
:10000800FE00030EF0000A08F1000A128A11E12925
:100018000A128A110F28F701F801F901FA01830180
:100028000A128A116C29F60031283F308312031313
:100038009F0550282A28831203131F083F39803848
:100048002F28C030831203139F04502883120313F0
:100058001F083F3940389F0050287608F400F50102
:100068007508003A031939282A287408013A03192F
:100078001928053A03191E280C3A03191F281C3A97
:10008800031925282A284C28831603139F17AB2801
:10009800831603139F13AB287308F400F501750842
:1000A800003A031958284C287408483A0319472875
:1000B800043A031948284C28051483160317081412
:1000C800C330831203139F05CD28851483160317A5
:1000D8008814831203131F08C3390438A928051587
:1000E800831603170815831203131F08C33908382A
:1000F800A92885158316031788158628851683165B
:1001080003170816831203131F08C3390C38A928CC
:100118000914831603178816831203131F08C3399B
:100128001438A92889148316031708178312031390
:100138001F08C3391838A928091583160317881703
:10014800831203131F08C3391C389F00CD28720877
:10015800F400F5017508003A0319B328CD2874088E
:10016800003A03196028013A03196928033A031968
:100178007328013A03197D28073A03198228013A9E
:1001880003198C28033A03199628013A0319A02861
:10019800CD2883121F140C13831603130C170B1787
:1001A8008B172730F500F530F400F40BD928F50B40
:1001B800D928831203139F140800F40049298316D1
:1001C80003130514831603170814C330831203138B
:1001D8009F050800831603138514831603178814D4
:1001E800831203131F08C33904389F0008008316BD
:1001F80003130515831603170815831203131F0825
:10020800C33908389F000800831603138515831621
:1002180003178815831203131F08C3390C389F006E
:10022800080083160313851683160317081683120E
:1002380003131F08C3390C389F00080083160313E3
:100248000914831603178816831203131F08C3396A
:1002580014389F00080083160313891483160317A4
:100268000817831203131F08C33918389F000800A2
:1002780083160313091583160317881783120313AC
:100288001F08C3391C389F0008007408F200F301E6
:100298007308003A031951296B297208003A0319A7
:1002A800E328013A0319EE28033A0319FB28013A17
:1002B80003190829073A03191529013A03192229AC
:1002C800033A03192F29013A03193C296B2908001D
:1002D800F201483083120313A0002008F300043011
:1002E8000A128A1117200A128A117A08031DA429F2
:1002F800792948300A128A11C4210A128A118312F4
:100308000313A0002008F90000300A128A11E12026
:100318000A128A11B92948300A128A11C4210A120C
:100328008A1183120313A0002008F80005300A126E
:100338008A11E1200A128A11B929F801F901B929AB
:10034800831203131F0CA000200C0F39A100A20177
:100358002208003A0319B129A1292108003A0319F2
:100368008F29053A03197D29A129FA01831203135C
:100378000C13831603130C17831203139F14792984
:10038800F400CF298312C929831603131E08F2002B
:100398007208F500DF297408F200F3017308003AC7
:1003A8000319D729C6297208483A0319C629043AF5
:1003B8000319C829C62975080800831603130C1FDA
:1003C800EB29831203130C1FEB29FA01FA0A7108AF
:0C03D8008A00700E8300FE0E7E0E0900ED
:04400E00D4E0FFFFFC
:00000001FF
