:020000040000FA
:060000000A128A110C280F
:10000800FE00030EF0000A08F1000A128A11212AE4
:100018000A128A110F28F701F801F901FA0183126F
:100028000313A30183010A128A11E428F600342875
:100038003F30831203139F0553282D28831203137F
:100048001F083F3980383228C030831203139F04B9
:100058005328831203131F083F3940389F00532841
:100068007608F400F5017508003A03193C282D2894
:100078007408013A03191C28053A031921280C3A77
:10008800031922281C3A031928282D284F288316DB
:1000980003139F17AE28831603139F13AE28730804
:1000A800F400F5017508003A03195B284F28740815
:1000B800483A03194A28043A03194B284F280514CB
:1000C800831603170814C330831203139F05D0281F
:1000D8008514831603178814831203131F08C33962
:1000E8000438AC2805158316031708158312031363
:1000F8001F08C3390838AC288515831603178815D7
:1001080089288516831603170816831203131F08F8
:10011800C3390C38AC2809148316031788168312C0
:1001280003131F08C3391438AC288914831603171E
:100138000817831203131F08C3391838AC28091588
:10014800831603178817831203131F08C3391C3833
:100158009F00D0287208F400F5017508003A0319C9
:10016800B628D0287408003A03196328013A0319FD
:100178006C28033A03197628013A03198028073AAC
:1001880003198528013A03198F28033A0319992876
:10019800013A0319A328D02883121F140C138316BD
:1001A80003130C170B178B172730F500F530F400E5
:1001B800F40BDC28F50BDC28831203139F140800CA
:1001C800F201483083120313A0002008F300043022
:1001D8000A128A111A200A128A11F201F301F40193
:1001E80025300A128A1137220A128A118312031340
:1001F8002308031D2729442948300A128A1104229A
:100208000A128A1183120313A0002008FA00003092
:100218000A128A1179210A128A113A2948300A12D7
:100228008A1104220A128A1183120313A0002008DB
:10023800F90005300A128A1179210A128A113A291D
:10024800F901FA013A291F0CA000200C0F39A1006E
:10025800A2012208003A0319322924292108003A68
:1002680003191229053A03190029242983120313B3
:10027800A301831603130C17831203130C139F1483
:1002880083160313141C5029831203131308A000A8
:100298002008F800F701F70A7708031D6629FA28ED
:1002A80079080A128A114B220A128A11A530831280
:1002B8000313A000A00B5E29612977297A08552924
:1002C8000030552978088312A000A1012108003ABE
:1002D80003196F2964292008163A03195429543A36
:1002E800031962296429F701FA28F400E129831621
:1002F80003130514831603170814C330831203135A
:100308009F050800831603138514831603178814A2
:10031800831203131F08C33904389F00080083168B
:1003280003130515831603170815831203131F08F3
:10033800C33908389F0008008316031385158316F0
:1003480003178815831203131F08C3390C389F003D
:1003580008008316031385168316031708168312DD
:1003680003131F08C3390C389F00080083160313B2
:100378000914831603178816831203131F08C33939
:1003880014389F0008008316031389148316031773
:100398000817831203131F08C33918389F00080071
:1003A800831603130915831603178817831203137B
:1003B8001F08C3391C389F0008007408F200F301B5
:1003C8007308003A0319E929032A7208003A031945
:1003D8007B29013A03198629033A03199329013A1B
:1003E8000319A029073A0319AD29013A0319BA29B3
:1003F800033A0319C729013A0319D429032A080023
:10040800F4000F2A8312092A831603131E08F20028
:100418007208F5001F2A7408F200F3017308003A05
:100428000319172A062A7208483A0319062A043AB1
:100438000319082A062A75080800831603130C1FD7
:10044800302A831203130C1F302A831603130C134C
:1004580083120313A301A30A71088A00700E830094
:10046800FE0E7E0E0900F500831603138712751D14
:10047800412A740894008715452A72087404940068
:100488008711750873048312031394000800F2009F
:0A049800720883120313930008009A
:04400E00D4E0FFFFFC
:00000001FF
